{
  "_format": "hh-sol-artifact-1",
  "contractName": "SupplyChain",
  "sourceName": "contracts/supplyChain.sol",
  "abi": [
    {
      "inputs": [],
      "stateMutability": "nonpayable",
      "type": "constructor"
    },
    {
      "anonymous": false,
      "inputs": [
        {
          "indexed": true,
          "internalType": "address",
          "name": "sender",
          "type": "address"
        },
        {
          "indexed": true,
          "internalType": "address",
          "name": "receiver",
          "type": "address"
        },
        {
          "indexed": false,
          "internalType": "uint256",
          "name": "pickupTime",
          "type": "uint256"
        },
        {
          "indexed": false,
          "internalType": "uint256",
          "name": "distance",
          "type": "uint256"
        },
        {
          "indexed": false,
          "internalType": "uint256",
          "name": "price",
          "type": "uint256"
        }
      ],
      "name": "ShipmentCreated",
      "type": "event"
    },
    {
      "anonymous": false,
      "inputs": [
        {
          "indexed": true,
          "internalType": "address",
          "name": "sender",
          "type": "address"
        },
        {
          "indexed": true,
          "internalType": "address",
          "name": "receiver",
          "type": "address"
        },
        {
          "indexed": false,
          "internalType": "uint256",
          "name": "deliveryTime",
          "type": "uint256"
        }
      ],
      "name": "ShipmentDelivered",
      "type": "event"
    },
    {
      "anonymous": false,
      "inputs": [
        {
          "indexed": true,
          "internalType": "address",
          "name": "sender",
          "type": "address"
        },
        {
          "indexed": true,
          "internalType": "address",
          "name": "receiver",
          "type": "address"
        },
        {
          "indexed": false,
          "internalType": "uint256",
          "name": "pickupTime",
          "type": "uint256"
        }
      ],
      "name": "ShipmentInTransit",
      "type": "event"
    },
    {
      "anonymous": false,
      "inputs": [
        {
          "indexed": true,
          "internalType": "address",
          "name": "sender",
          "type": "address"
        },
        {
          "indexed": true,
          "internalType": "address",
          "name": "receiver",
          "type": "address"
        },
        {
          "indexed": false,
          "internalType": "uint256",
          "name": "amount",
          "type": "uint256"
        }
      ],
      "name": "ShipmentPaid",
      "type": "event"
    },
    {
      "inputs": [
        {
          "internalType": "address",
          "name": "_sender",
          "type": "address"
        },
        {
          "internalType": "address",
          "name": "_receiver",
          "type": "address"
        },
        {
          "internalType": "uint256",
          "name": "_index",
          "type": "uint256"
        }
      ],
      "name": "completeShipment",
      "outputs": [],
      "stateMutability": "nonpayable",
      "type": "function"
    },
    {
      "inputs": [
        {
          "internalType": "address",
          "name": "_receiver",
          "type": "address"
        },
        {
          "internalType": "uint256",
          "name": "_pickupTime",
          "type": "uint256"
        },
        {
          "internalType": "uint256",
          "name": "_distance",
          "type": "uint256"
        },
        {
          "internalType": "uint256",
          "name": "_price",
          "type": "uint256"
        }
      ],
      "name": "createShipment",
      "outputs": [],
      "stateMutability": "payable",
      "type": "function"
    },
    {
      "inputs": [],
      "name": "getAllTransactions",
      "outputs": [
        {
          "components": [
            {
              "internalType": "address",
              "name": "sender",
              "type": "address"
            },
            {
              "internalType": "address",
              "name": "receiver",
              "type": "address"
            },
            {
              "internalType": "uint256",
              "name": "pickupTime",
              "type": "uint256"
            },
            {
              "internalType": "uint256",
              "name": "deliveryTime",
              "type": "uint256"
            },
            {
              "internalType": "uint256",
              "name": "distance",
              "type": "uint256"
            },
            {
              "internalType": "uint256",
              "name": "price",
              "type": "uint256"
            },
            {
              "internalType": "enum SupplyChain.ShipmentStatus",
              "name": "status",
              "type": "uint8"
            },
            {
              "internalType": "bool",
              "name": "isPaid",
              "type": "bool"
            }
          ],
          "internalType": "struct SupplyChain.TypeShipment[]",
          "name": "",
          "type": "tuple[]"
        }
      ],
      "stateMutability": "view",
      "type": "function"
    },
    {
      "inputs": [
        {
          "internalType": "address",
          "name": "_sender",
          "type": "address"
        },
        {
          "internalType": "uint256",
          "name": "_index",
          "type": "uint256"
        }
      ],
      "name": "getShipment",
      "outputs": [
        {
          "internalType": "address",
          "name": "",
          "type": "address"
        },
        {
          "internalType": "address",
          "name": "",
          "type": "address"
        },
        {
          "internalType": "uint256",
          "name": "",
          "type": "uint256"
        },
        {
          "internalType": "uint256",
          "name": "",
          "type": "uint256"
        },
        {
          "internalType": "uint256",
          "name": "",
          "type": "uint256"
        },
        {
          "internalType": "uint256",
          "name": "",
          "type": "uint256"
        },
        {
          "internalType": "enum SupplyChain.ShipmentStatus",
          "name": "",
          "type": "uint8"
        },
        {
          "internalType": "bool",
          "name": "",
          "type": "bool"
        }
      ],
      "stateMutability": "view",
      "type": "function"
    },
    {
      "inputs": [
        {
          "internalType": "address",
          "name": "_sender",
          "type": "address"
        }
      ],
      "name": "getShipmentsCount",
      "outputs": [
        {
          "internalType": "uint256",
          "name": "",
          "type": "uint256"
        }
      ],
      "stateMutability": "view",
      "type": "function"
    },
    {
      "inputs": [
        {
          "internalType": "address",
          "name": "user",
          "type": "address"
        }
      ],
      "name": "getUserShipments",
      "outputs": [
        {
          "components": [
            {
              "internalType": "address",
              "name": "sender",
              "type": "address"
            },
            {
              "internalType": "address",
              "name": "receiver",
              "type": "address"
            },
            {
              "internalType": "uint256",
              "name": "pickupTime",
              "type": "uint256"
            },
            {
              "internalType": "uint256",
              "name": "deliveryTime",
              "type": "uint256"
            },
            {
              "internalType": "uint256",
              "name": "distance",
              "type": "uint256"
            },
            {
              "internalType": "uint256",
              "name": "price",
              "type": "uint256"
            },
            {
              "internalType": "enum SupplyChain.ShipmentStatus",
              "name": "status",
              "type": "uint8"
            },
            {
              "internalType": "bool",
              "name": "isPaid",
              "type": "bool"
            }
          ],
          "internalType": "struct SupplyChain.Shipment[]",
          "name": "",
          "type": "tuple[]"
        }
      ],
      "stateMutability": "view",
      "type": "function"
    },
    {
      "inputs": [],
      "name": "shipmentCount",
      "outputs": [
        {
          "internalType": "uint256",
          "name": "",
          "type": "uint256"
        }
      ],
      "stateMutability": "view",
      "type": "function"
    },
    {
      "inputs": [
        {
          "internalType": "address",
          "name": "",
          "type": "address"
        },
        {
          "internalType": "uint256",
          "name": "",
          "type": "uint256"
        }
      ],
      "name": "shipments",
      "outputs": [
        {
          "internalType": "address",
          "name": "sender",
          "type": "address"
        },
        {
          "internalType": "address",
          "name": "receiver",
          "type": "address"
        },
        {
          "internalType": "uint256",
          "name": "pickupTime",
          "type": "uint256"
        },
        {
          "internalType": "uint256",
          "name": "deliveryTime",
          "type": "uint256"
        },
        {
          "internalType": "uint256",
          "name": "distance",
          "type": "uint256"
        },
        {
          "internalType": "uint256",
          "name": "price",
          "type": "uint256"
        },
        {
          "internalType": "enum SupplyChain.ShipmentStatus",
          "name": "status",
          "type": "uint8"
        },
        {
          "internalType": "bool",
          "name": "isPaid",
          "type": "bool"
        }
      ],
      "stateMutability": "view",
      "type": "function"
    },
    {
      "inputs": [
        {
          "internalType": "address",
          "name": "_sender",
          "type": "address"
        },
        {
          "internalType": "address",
          "name": "_receiver",
          "type": "address"
        },
        {
          "internalType": "uint256",
          "name": "_index",
          "type": "uint256"
        }
      ],
      "name": "startShipment",
      "outputs": [],
      "stateMutability": "nonpayable",
      "type": "function"
    }
  ],
  "bytecode": "0x6080604052348015600f57600080fd5b506000600181905550611de3806100276000396000f3fe6080604052600436106100865760003560e01c80637ff5265d116100595780637ff5265d146101605780638365da54146101895780639490c9ef146101cd578063aace20b71461020a578063cbc4b1811461023557610086565b8063179a878c1461008b57806327506f53146100b457806341fdc195146100df5780635667e02f1461011c575b600080fd5b34801561009757600080fd5b506100b260048036038101906100ad9190611437565b610251565b005b3480156100c057600080fd5b506100c961068b565b6040516100d6919061168c565b60405180910390f35b3480156100eb57600080fd5b50610106600480360381019061010191906116ae565b610815565b60405161011391906116ea565b60405180910390f35b34801561012857600080fd5b50610143600480360381019061013e9190611705565b610860565b604051610157989796959493929190611772565b60405180910390f35b34801561016c57600080fd5b5061018760048036038101906101829190611437565b61091f565b005b34801561019557600080fd5b506101b060048036038101906101ab9190611705565b610b7b565b6040516101c4989796959493929190611772565b60405180910390f35b3480156101d957600080fd5b506101f460048036038101906101ef91906116ae565b610d65565b6040516102019190611942565b60405180910390f35b34801561021657600080fd5b5061021f610f2d565b60405161022c91906116ea565b60405180910390f35b61024f600480360381019061024a9190611964565b610f33565b005b60008060008573ffffffffffffffffffffffffffffffffffffffff1673ffffffffffffffffffffffffffffffffffffffff16815260200190815260200160002082815481106102a3576102a26119cb565b5b906000526020600020906007020190506000600283815481106102c9576102c86119cb565b5b906000526020600020906007020190508373ffffffffffffffffffffffffffffffffffffffff168260010160009054906101000a900473ffffffffffffffffffffffffffffffffffffffff1673ffffffffffffffffffffffffffffffffffffffff161461036b576040517f08c379a000000000000000000000000000000000000000000000000000000000815260040161036290611a57565b60405180910390fd5b6001600281111561037f5761037e6114d4565b5b8260060160009054906101000a900460ff1660028111156103a3576103a26114d4565b5b146103e3576040517f08c379a00000000000000000000000000000000000000000000000000000000081526004016103da90611ac3565b60405180910390fd5b8160060160019054906101000a900460ff1615610435576040517f08c379a000000000000000000000000000000000000000000000000000000000815260040161042c90611b2f565b60405180910390fd5b60028260060160006101000a81548160ff0219169083600281111561045d5761045c6114d4565b5b021790555060028160060160006101000a81548160ff0219169083600281111561048a576104896114d4565b5b021790555042816003018190555042826003018190555060008260050154905060018360060160016101000a81548160ff02191690831515021790555060018260060160016101000a81548160ff02191690831515021790555060008360000160009054906101000a900473ffffffffffffffffffffffffffffffffffffffff1673ffffffffffffffffffffffffffffffffffffffff168260405161052e90611b80565b60006040518083038185875af1925050503d806000811461056b576040519150601f19603f3d011682016040523d82523d6000602084013e610570565b606091505b50509050806105b4576040517f08c379a00000000000000000000000000000000000000000000000000000000081526004016105ab90611be1565b60405180910390fd5b8573ffffffffffffffffffffffffffffffffffffffff168773ffffffffffffffffffffffffffffffffffffffff167f3746ccceb54f44c9b0ee0120e596168d07ec9f6ca303cfdd9810d3b2e2686a2e866003015460405161061591906116ea565b60405180910390a38573ffffffffffffffffffffffffffffffffffffffff168773ffffffffffffffffffffffffffffffffffffffff167f2b6f2473aebafaf8d0889669490135928ec4454d2e29a103fd39693bbca6aef18460405161067a91906116ea565b60405180910390a350505050505050565b60606002805480602002602001604051908101604052809291908181526020016000905b8282101561080c5783829060005260206000209060070201604051806101000160405290816000820160009054906101000a900473ffffffffffffffffffffffffffffffffffffffff1673ffffffffffffffffffffffffffffffffffffffff1673ffffffffffffffffffffffffffffffffffffffff1681526020016001820160009054906101000a900473ffffffffffffffffffffffffffffffffffffffff1673ffffffffffffffffffffffffffffffffffffffff1673ffffffffffffffffffffffffffffffffffffffff168152602001600282015481526020016003820154815260200160048201548152602001600582015481526020016006820160009054906101000a900460ff1660028111156107cc576107cb6114d4565b5b60028111156107de576107dd6114d4565b5b81526020016006820160019054906101000a900460ff161515151581525050815260200190600101906106af565b50505050905090565b60008060008373ffffffffffffffffffffffffffffffffffffffff1673ffffffffffffffffffffffffffffffffffffffff168152602001908152602001600020805490509050919050565b6000602052816000526040600020818154811061087c57600080fd5b9060005260206000209060070201600091509150508060000160009054906101000a900473ffffffffffffffffffffffffffffffffffffffff16908060010160009054906101000a900473ffffffffffffffffffffffffffffffffffffffff16908060020154908060030154908060040154908060050154908060060160009054906101000a900460ff16908060060160019054906101000a900460ff16905088565b60008060008573ffffffffffffffffffffffffffffffffffffffff1673ffffffffffffffffffffffffffffffffffffffff1681526020019081526020016000208281548110610971576109706119cb565b5b90600052602060002090600702019050600060028381548110610997576109966119cb565b5b906000526020600020906007020190508373ffffffffffffffffffffffffffffffffffffffff168260010160009054906101000a900473ffffffffffffffffffffffffffffffffffffffff1673ffffffffffffffffffffffffffffffffffffffff1614610a39576040517f08c379a0000000000000000000000000000000000000000000000000000000008152600401610a3090611a57565b60405180910390fd5b60006002811115610a4d57610a4c6114d4565b5b8260060160009054906101000a900460ff166002811115610a7157610a706114d4565b5b14610ab1576040517f08c379a0000000000000000000000000000000000000000000000000000000008152600401610aa890611c4d565b60405180910390fd5b60018260060160006101000a81548160ff02191690836002811115610ad957610ad86114d4565b5b021790555060018160060160006101000a81548160ff02191690836002811115610b0657610b056114d4565b5b02179055508373ffffffffffffffffffffffffffffffffffffffff168573ffffffffffffffffffffffffffffffffffffffff167faafab9f94340179ff9cefd29621e1772a4b8efab8023163838f1b0a8f6ce5df58460020154604051610b6c91906116ea565b60405180910390a35050505050565b60008060008060008060008060008060008c73ffffffffffffffffffffffffffffffffffffffff1673ffffffffffffffffffffffffffffffffffffffff1681526020019081526020016000208a81548110610bd957610bd86119cb565b5b9060005260206000209060070201604051806101000160405290816000820160009054906101000a900473ffffffffffffffffffffffffffffffffffffffff1673ffffffffffffffffffffffffffffffffffffffff1673ffffffffffffffffffffffffffffffffffffffff1681526020016001820160009054906101000a900473ffffffffffffffffffffffffffffffffffffffff1673ffffffffffffffffffffffffffffffffffffffff1673ffffffffffffffffffffffffffffffffffffffff168152602001600282015481526020016003820154815260200160048201548152602001600582015481526020016006820160009054906101000a900460ff166002811115610cec57610ceb6114d4565b5b6002811115610cfe57610cfd6114d4565b5b81526020016006820160019054906101000a900460ff1615151515815250509050806000015181602001518260400151836060015184608001518560a001518660c001518760e0015198509850985098509850985098509850509295985092959890939650565b60606000808373ffffffffffffffffffffffffffffffffffffffff1673ffffffffffffffffffffffffffffffffffffffff168152602001908152602001600020805480602002602001604051908101604052809291908181526020016000905b82821015610f225783829060005260206000209060070201604051806101000160405290816000820160009054906101000a900473ffffffffffffffffffffffffffffffffffffffff1673ffffffffffffffffffffffffffffffffffffffff1673ffffffffffffffffffffffffffffffffffffffff1681526020016001820160009054906101000a900473ffffffffffffffffffffffffffffffffffffffff1673ffffffffffffffffffffffffffffffffffffffff1673ffffffffffffffffffffffffffffffffffffffff168152602001600282015481526020016003820154815260200160048201548152602001600582015481526020016006820160009054906101000a900460ff166002811115610ee257610ee16114d4565b5b6002811115610ef457610ef36114d4565b5b81526020016006820160019054906101000a900460ff16151515158152505081526020019060010190610dc5565b505050509050919050565b60015481565b803414610f75576040517f08c379a0000000000000000000000000000000000000000000000000000000008152600401610f6c90611cdf565b60405180910390fd5b60006040518061010001604052803373ffffffffffffffffffffffffffffffffffffffff1681526020018673ffffffffffffffffffffffffffffffffffffffff1681526020018581526020016000815260200184815260200183815260200160006002811115610fe857610fe76114d4565b5b81526020016000151581525090506000803373ffffffffffffffffffffffffffffffffffffffff1673ffffffffffffffffffffffffffffffffffffffff16815260200190815260200160002081908060018154018082558091505060019003906000526020600020906007020160009091909190915060008201518160000160006101000a81548173ffffffffffffffffffffffffffffffffffffffff021916908373ffffffffffffffffffffffffffffffffffffffff16021790555060208201518160010160006101000a81548173ffffffffffffffffffffffffffffffffffffffff021916908373ffffffffffffffffffffffffffffffffffffffff16021790555060408201518160020155606082015181600301556080820151816004015560a0820151816005015560c08201518160060160006101000a81548160ff0219169083600281111561113f5761113e6114d4565b5b021790555060e08201518160060160016101000a81548160ff02191690831515021790555050506001600081548092919061117990611d2e565b919050555060026040518061010001604052803373ffffffffffffffffffffffffffffffffffffffff1681526020018773ffffffffffffffffffffffffffffffffffffffff16815260200186815260200160008152602001858152602001848152602001600060028111156111f1576111f06114d4565b5b815260200160001515815250908060018154018082558091505060019003906000526020600020906007020160009091909190915060008201518160000160006101000a81548173ffffffffffffffffffffffffffffffffffffffff021916908373ffffffffffffffffffffffffffffffffffffffff16021790555060208201518160010160006101000a81548173ffffffffffffffffffffffffffffffffffffffff021916908373ffffffffffffffffffffffffffffffffffffffff16021790555060408201518160020155606082015181600301556080820151816004015560a0820151816005015560c08201518160060160006101000a81548160ff02191690836002811115611307576113066114d4565b5b021790555060e08201518160060160016101000a81548160ff02191690831515021790555050508473ffffffffffffffffffffffffffffffffffffffff163373ffffffffffffffffffffffffffffffffffffffff167f5001b34ecf2db5b7bbeddcbbe761ec9ecadcc7638018b98ce3e24995b0e946b686868660405161138f93929190611d76565b60405180910390a35050505050565b600080fd5b600073ffffffffffffffffffffffffffffffffffffffff82169050919050565b60006113ce826113a3565b9050919050565b6113de816113c3565b81146113e957600080fd5b50565b6000813590506113fb816113d5565b92915050565b6000819050919050565b61141481611401565b811461141f57600080fd5b50565b6000813590506114318161140b565b92915050565b6000806000606084860312156114505761144f61139e565b5b600061145e868287016113ec565b935050602061146f868287016113ec565b925050604061148086828701611422565b9150509250925092565b600081519050919050565b600082825260208201905092915050565b6000819050602082019050919050565b6114bf816113c3565b82525050565b6114ce81611401565b82525050565b7f4e487b7100000000000000000000000000000000000000000000000000000000600052602160045260246000fd5b60038110611514576115136114d4565b5b50565b600081905061152582611503565b919050565b600061153582611517565b9050919050565b6115458161152a565b82525050565b60008115159050919050565b6115608161154b565b82525050565b6101008201600082015161157d60008501826114b6565b50602082015161159060208501826114b6565b5060408201516115a360408501826114c5565b5060608201516115b660608501826114c5565b5060808201516115c960808501826114c5565b5060a08201516115dc60a08501826114c5565b5060c08201516115ef60c085018261153c565b5060e082015161160260e0850182611557565b50505050565b60006116148383611566565b6101008301905092915050565b6000602082019050919050565b60006116398261148a565b6116438185611495565b935061164e836114a6565b8060005b8381101561167f5781516116668882611608565b975061167183611621565b925050600181019050611652565b5085935050505092915050565b600060208201905081810360008301526116a6818461162e565b905092915050565b6000602082840312156116c4576116c361139e565b5b60006116d2848285016113ec565b91505092915050565b6116e481611401565b82525050565b60006020820190506116ff60008301846116db565b92915050565b6000806040838503121561171c5761171b61139e565b5b600061172a858286016113ec565b925050602061173b85828601611422565b9150509250929050565b61174e816113c3565b82525050565b61175d8161152a565b82525050565b61176c8161154b565b82525050565b600061010082019050611788600083018b611745565b611795602083018a611745565b6117a260408301896116db565b6117af60608301886116db565b6117bc60808301876116db565b6117c960a08301866116db565b6117d660c0830185611754565b6117e360e0830184611763565b9998505050505050505050565b600081519050919050565b600082825260208201905092915050565b6000819050602082019050919050565b6101008201600082015161183360008501826114b6565b50602082015161184660208501826114b6565b50604082015161185960408501826114c5565b50606082015161186c60608501826114c5565b50608082015161187f60808501826114c5565b5060a082015161189260a08501826114c5565b5060c08201516118a560c085018261153c565b5060e08201516118b860e0850182611557565b50505050565b60006118ca838361181c565b6101008301905092915050565b6000602082019050919050565b60006118ef826117f0565b6118f981856117fb565b93506119048361180c565b8060005b8381101561193557815161191c88826118be565b9750611927836118d7565b925050600181019050611908565b5085935050505092915050565b6000602082019050818103600083015261195c81846118e4565b905092915050565b6000806000806080858703121561197e5761197d61139e565b5b600061198c878288016113ec565b945050602061199d87828801611422565b93505060406119ae87828801611422565b92505060606119bf87828801611422565b91505092959194509250565b7f4e487b7100000000000000000000000000000000000000000000000000000000600052603260045260246000fd5b600082825260208201905092915050565b7f496e76616c696420726563656976657200000000000000000000000000000000600082015250565b6000611a416010836119fa565b9150611a4c82611a0b565b602082019050919050565b60006020820190508181036000830152611a7081611a34565b9050919050565b7f536869706d656e74206973206e6f7420696e207472616e7369742e0000000000600082015250565b6000611aad601b836119fa565b9150611ab882611a77565b602082019050919050565b60006020820190508181036000830152611adc81611aa0565b9050919050565b7f536869706d656e7420616c726561647920706169642e00000000000000000000600082015250565b6000611b196016836119fa565b9150611b2482611ae3565b602082019050919050565b60006020820190508181036000830152611b4881611b0c565b9050919050565b600081905092915050565b50565b6000611b6a600083611b4f565b9150611b7582611b5a565b600082019050919050565b6000611b8b82611b5d565b9150819050919050565b7f5061796d656e74206661696c6564000000000000000000000000000000000000600082015250565b6000611bcb600e836119fa565b9150611bd682611b95565b602082019050919050565b60006020820190508181036000830152611bfa81611bbe565b9050919050565b7f536869706d656e7420616c726561647920696e207472616e7369742e00000000600082015250565b6000611c37601c836119fa565b9150611c4282611c01565b602082019050919050565b60006020820190508181036000830152611c6681611c2a565b9050919050565b7f7061796d656e7420616d6f756e74206d757374206d617463682074686520707260008201527f6963650000000000000000000000000000000000000000000000000000000000602082015250565b6000611cc96023836119fa565b9150611cd482611c6d565b604082019050919050565b60006020820190508181036000830152611cf881611cbc565b9050919050565b7f4e487b7100000000000000000000000000000000000000000000000000000000600052601160045260246000fd5b6000611d3982611401565b91507fffffffffffffffffffffffffffffffffffffffffffffffffffffffffffffffff8203611d6b57611d6a611cff565b5b600182019050919050565b6000606082019050611d8b60008301866116db565b611d9860208301856116db565b611da560408301846116db565b94935050505056fea26469706673582212202c04e9bd498b0d85f05d79b21ec963026cf20c6a66328f88be2022b299a501db64736f6c634300081b0033",
  "linkReferences": {},
  "deployedLinkReferences": {}
}