{
  "_format": "hh-sol-artifact-1",
  "contractName": "SupplyChain",
  "sourceName": "contracts/supplyChain.sol",
  "abi": [
    {
      "inputs": [],
      "stateMutability": "nonpayable",
      "type": "constructor"
    },
    {
      "anonymous": false,
      "inputs": [
        {
          "indexed": true,
          "internalType": "address",
          "name": "sender",
          "type": "address"
        },
        {
          "indexed": true,
          "internalType": "address",
          "name": "receiver",
          "type": "address"
        },
        {
          "indexed": false,
          "internalType": "uint256",
          "name": "pickupTime",
          "type": "uint256"
        },
        {
          "indexed": false,
          "internalType": "uint256",
          "name": "deliveryTime",
          "type": "uint256"
        },
        {
          "indexed": false,
          "internalType": "uint256",
          "name": "distance",
          "type": "uint256"
        },
        {
          "indexed": false,
          "internalType": "uint256",
          "name": "price",
          "type": "uint256"
        }
      ],
      "name": "ShipmentCreated",
      "type": "event"
    },
    {
      "anonymous": false,
      "inputs": [
        {
          "indexed": true,
          "internalType": "address",
          "name": "sender",
          "type": "address"
        },
        {
          "indexed": true,
          "internalType": "address",
          "name": "receiver",
          "type": "address"
        },
        {
          "indexed": false,
          "internalType": "uint256",
          "name": "deliveryTime",
          "type": "uint256"
        }
      ],
      "name": "ShipmentDelivered",
      "type": "event"
    },
    {
      "anonymous": false,
      "inputs": [
        {
          "indexed": true,
          "internalType": "address",
          "name": "sender",
          "type": "address"
        },
        {
          "indexed": true,
          "internalType": "address",
          "name": "receiver",
          "type": "address"
        },
        {
          "indexed": false,
          "internalType": "uint256",
          "name": "pickupTime",
          "type": "uint256"
        }
      ],
      "name": "ShipmentInTransit",
      "type": "event"
    },
    {
      "anonymous": false,
      "inputs": [
        {
          "indexed": true,
          "internalType": "address",
          "name": "sender",
          "type": "address"
        },
        {
          "indexed": true,
          "internalType": "address",
          "name": "receiver",
          "type": "address"
        },
        {
          "indexed": false,
          "internalType": "uint256",
          "name": "amount",
          "type": "uint256"
        }
      ],
      "name": "ShipmentPaid",
      "type": "event"
    },
    {
      "inputs": [
        {
          "internalType": "address",
          "name": "_sender",
          "type": "address"
        },
        {
          "internalType": "address",
          "name": "_receiver",
          "type": "address"
        },
        {
          "internalType": "uint256",
          "name": "_index",
          "type": "uint256"
        }
      ],
      "name": "completeShipment",
      "outputs": [],
      "stateMutability": "nonpayable",
      "type": "function"
    },
    {
      "inputs": [
        {
          "internalType": "address",
          "name": "_receiver",
          "type": "address"
        },
        {
          "internalType": "uint256",
          "name": "_pickupTime",
          "type": "uint256"
        },
        {
          "internalType": "uint256",
          "name": "_deliveryTime",
          "type": "uint256"
        },
        {
          "internalType": "uint256",
          "name": "_distance",
          "type": "uint256"
        },
        {
          "internalType": "uint256",
          "name": "_price",
          "type": "uint256"
        }
      ],
      "name": "createShipment",
      "outputs": [],
      "stateMutability": "payable",
      "type": "function"
    },
    {
      "inputs": [],
      "name": "getAllTransactions",
      "outputs": [
        {
          "components": [
            {
              "internalType": "address",
              "name": "sender",
              "type": "address"
            },
            {
              "internalType": "address",
              "name": "receiver",
              "type": "address"
            },
            {
              "internalType": "uint256",
              "name": "pickupTime",
              "type": "uint256"
            },
            {
              "internalType": "uint256",
              "name": "deliveryTime",
              "type": "uint256"
            },
            {
              "internalType": "uint256",
              "name": "distance",
              "type": "uint256"
            },
            {
              "internalType": "uint256",
              "name": "price",
              "type": "uint256"
            },
            {
              "internalType": "enum SupplyChain.ShipmentStatus",
              "name": "status",
              "type": "uint8"
            },
            {
              "internalType": "bool",
              "name": "isPaid",
              "type": "bool"
            }
          ],
          "internalType": "struct SupplyChain.TypeShipment[]",
          "name": "",
          "type": "tuple[]"
        }
      ],
      "stateMutability": "view",
      "type": "function"
    },
    {
      "inputs": [
        {
          "internalType": "address",
          "name": "_sender",
          "type": "address"
        },
        {
          "internalType": "uint256",
          "name": "_index",
          "type": "uint256"
        }
      ],
      "name": "getShipment",
      "outputs": [
        {
          "internalType": "address",
          "name": "",
          "type": "address"
        },
        {
          "internalType": "address",
          "name": "",
          "type": "address"
        },
        {
          "internalType": "uint256",
          "name": "",
          "type": "uint256"
        },
        {
          "internalType": "uint256",
          "name": "",
          "type": "uint256"
        },
        {
          "internalType": "uint256",
          "name": "",
          "type": "uint256"
        },
        {
          "internalType": "uint256",
          "name": "",
          "type": "uint256"
        },
        {
          "internalType": "enum SupplyChain.ShipmentStatus",
          "name": "",
          "type": "uint8"
        },
        {
          "internalType": "bool",
          "name": "",
          "type": "bool"
        }
      ],
      "stateMutability": "view",
      "type": "function"
    },
    {
      "inputs": [
        {
          "internalType": "address",
          "name": "_sender",
          "type": "address"
        }
      ],
      "name": "getShipmentsCount",
      "outputs": [
        {
          "internalType": "uint256",
          "name": "",
          "type": "uint256"
        }
      ],
      "stateMutability": "view",
      "type": "function"
    },
    {
      "inputs": [],
      "name": "shipmentCount",
      "outputs": [
        {
          "internalType": "uint256",
          "name": "",
          "type": "uint256"
        }
      ],
      "stateMutability": "view",
      "type": "function"
    },
    {
      "inputs": [
        {
          "internalType": "address",
          "name": "",
          "type": "address"
        },
        {
          "internalType": "uint256",
          "name": "",
          "type": "uint256"
        }
      ],
      "name": "shipments",
      "outputs": [
        {
          "internalType": "address",
          "name": "sender",
          "type": "address"
        },
        {
          "internalType": "address",
          "name": "receiver",
          "type": "address"
        },
        {
          "internalType": "uint256",
          "name": "pickupTime",
          "type": "uint256"
        },
        {
          "internalType": "uint256",
          "name": "deliveryTime",
          "type": "uint256"
        },
        {
          "internalType": "uint256",
          "name": "distance",
          "type": "uint256"
        },
        {
          "internalType": "uint256",
          "name": "price",
          "type": "uint256"
        },
        {
          "internalType": "enum SupplyChain.ShipmentStatus",
          "name": "status",
          "type": "uint8"
        },
        {
          "internalType": "bool",
          "name": "isPaid",
          "type": "bool"
        }
      ],
      "stateMutability": "view",
      "type": "function"
    },
    {
      "inputs": [
        {
          "internalType": "address",
          "name": "_sender",
          "type": "address"
        },
        {
          "internalType": "address",
          "name": "_receiver",
          "type": "address"
        },
        {
          "internalType": "uint256",
          "name": "_index",
          "type": "uint256"
        }
      ],
      "name": "startShipment",
      "outputs": [],
      "stateMutability": "nonpayable",
      "type": "function"
    }
  ],
  "bytecode": "0x6080604052348015600f57600080fd5b506000600181905550611a67806100276000396000f3fe60806040526004361061007b5760003560e01c80637ff5265d1161004e5780637ff5265d146101555780638365da541461017e578063a25cef7b146101c2578063aace20b7146101de5761007b565b8063179a878c1461008057806327506f53146100a957806341fdc195146100d45780635667e02f14610111575b600080fd5b34801561008c57600080fd5b506100a760048036038101906100a2919061120d565b610209565b005b3480156100b557600080fd5b506100be610626565b6040516100cb9190611462565b60405180910390f35b3480156100e057600080fd5b506100fb60048036038101906100f69190611484565b6107b0565b60405161010891906114c0565b60405180910390f35b34801561011d57600080fd5b50610138600480360381019061013391906114db565b6107fb565b60405161014c989796959493929190611548565b60405180910390f35b34801561016157600080fd5b5061017c6004803603810190610177919061120d565b6108ba565b005b34801561018a57600080fd5b506101a560048036038101906101a091906114db565b610b16565b6040516101b9989796959493929190611548565b60405180910390f35b6101dc60048036038101906101d791906115c6565b610d00565b005b3480156101ea57600080fd5b506101f361116e565b60405161020091906114c0565b60405180910390f35b60008060008573ffffffffffffffffffffffffffffffffffffffff1673ffffffffffffffffffffffffffffffffffffffff168152602001908152602001600020828154811061025b5761025a611641565b5b9060005260206000209060070201905060006002838154811061028157610280611641565b5b906000526020600020906007020190508373ffffffffffffffffffffffffffffffffffffffff168260010160009054906101000a900473ffffffffffffffffffffffffffffffffffffffff1673ffffffffffffffffffffffffffffffffffffffff1614610323576040517f08c379a000000000000000000000000000000000000000000000000000000000815260040161031a906116cd565b60405180910390fd5b60016002811115610337576103366112aa565b5b8260060160009054906101000a900460ff16600281111561035b5761035a6112aa565b5b1461039b576040517f08c379a000000000000000000000000000000000000000000000000000000000815260040161039290611739565b60405180910390fd5b8160060160019054906101000a900460ff16156103ed576040517f08c379a00000000000000000000000000000000000000000000000000000000081526004016103e4906117a5565b60405180910390fd5b60028260060160006101000a81548160ff02191690836002811115610415576104146112aa565b5b021790555060028160060160006101000a81548160ff02191690836002811115610442576104416112aa565b5b021790555042816003018190555042826003018190555060008260050154905060018360060160016101000a81548160ff02191690831515021790555060008360000160009054906101000a900473ffffffffffffffffffffffffffffffffffffffff1673ffffffffffffffffffffffffffffffffffffffff16826040516104c9906117f6565b60006040518083038185875af1925050503d8060008114610506576040519150601f19603f3d011682016040523d82523d6000602084013e61050b565b606091505b505090508061054f576040517f08c379a000000000000000000000000000000000000000000000000000000000815260040161054690611857565b60405180910390fd5b8573ffffffffffffffffffffffffffffffffffffffff168773ffffffffffffffffffffffffffffffffffffffff167f3746ccceb54f44c9b0ee0120e596168d07ec9f6ca303cfdd9810d3b2e2686a2e86600301546040516105b091906114c0565b60405180910390a38573ffffffffffffffffffffffffffffffffffffffff168773ffffffffffffffffffffffffffffffffffffffff167f2b6f2473aebafaf8d0889669490135928ec4454d2e29a103fd39693bbca6aef18460405161061591906114c0565b60405180910390a350505050505050565b60606002805480602002602001604051908101604052809291908181526020016000905b828210156107a75783829060005260206000209060070201604051806101000160405290816000820160009054906101000a900473ffffffffffffffffffffffffffffffffffffffff1673ffffffffffffffffffffffffffffffffffffffff1673ffffffffffffffffffffffffffffffffffffffff1681526020016001820160009054906101000a900473ffffffffffffffffffffffffffffffffffffffff1673ffffffffffffffffffffffffffffffffffffffff1673ffffffffffffffffffffffffffffffffffffffff168152602001600282015481526020016003820154815260200160048201548152602001600582015481526020016006820160009054906101000a900460ff166002811115610767576107666112aa565b5b6002811115610779576107786112aa565b5b81526020016006820160019054906101000a900460ff1615151515815250508152602001906001019061064a565b50505050905090565b60008060008373ffffffffffffffffffffffffffffffffffffffff1673ffffffffffffffffffffffffffffffffffffffff168152602001908152602001600020805490509050919050565b6000602052816000526040600020818154811061081757600080fd5b9060005260206000209060070201600091509150508060000160009054906101000a900473ffffffffffffffffffffffffffffffffffffffff16908060010160009054906101000a900473ffffffffffffffffffffffffffffffffffffffff16908060020154908060030154908060040154908060050154908060060160009054906101000a900460ff16908060060160019054906101000a900460ff16905088565b60008060008573ffffffffffffffffffffffffffffffffffffffff1673ffffffffffffffffffffffffffffffffffffffff168152602001908152602001600020828154811061090c5761090b611641565b5b9060005260206000209060070201905060006002838154811061093257610931611641565b5b906000526020600020906007020190508373ffffffffffffffffffffffffffffffffffffffff168260010160009054906101000a900473ffffffffffffffffffffffffffffffffffffffff1673ffffffffffffffffffffffffffffffffffffffff16146109d4576040517f08c379a00000000000000000000000000000000000000000000000000000000081526004016109cb906116cd565b60405180910390fd5b600060028111156109e8576109e76112aa565b5b8260060160009054906101000a900460ff166002811115610a0c57610a0b6112aa565b5b14610a4c576040517f08c379a0000000000000000000000000000000000000000000000000000000008152600401610a43906118c3565b60405180910390fd5b60018260060160006101000a81548160ff02191690836002811115610a7457610a736112aa565b5b021790555060018160060160006101000a81548160ff02191690836002811115610aa157610aa06112aa565b5b02179055508373ffffffffffffffffffffffffffffffffffffffff168573ffffffffffffffffffffffffffffffffffffffff167faafab9f94340179ff9cefd29621e1772a4b8efab8023163838f1b0a8f6ce5df58460020154604051610b0791906114c0565b60405180910390a35050505050565b60008060008060008060008060008060008c73ffffffffffffffffffffffffffffffffffffffff1673ffffffffffffffffffffffffffffffffffffffff1681526020019081526020016000208a81548110610b7457610b73611641565b5b9060005260206000209060070201604051806101000160405290816000820160009054906101000a900473ffffffffffffffffffffffffffffffffffffffff1673ffffffffffffffffffffffffffffffffffffffff1673ffffffffffffffffffffffffffffffffffffffff1681526020016001820160009054906101000a900473ffffffffffffffffffffffffffffffffffffffff1673ffffffffffffffffffffffffffffffffffffffff1673ffffffffffffffffffffffffffffffffffffffff168152602001600282015481526020016003820154815260200160048201548152602001600582015481526020016006820160009054906101000a900460ff166002811115610c8757610c866112aa565b5b6002811115610c9957610c986112aa565b5b81526020016006820160019054906101000a900460ff1615151515815250509050806000015181602001518260400151836060015184608001518560a001518660c001518760e0015198509850985098509850985098509850509295985092959890939650565b803414610d42576040517f08c379a0000000000000000000000000000000000000000000000000000000008152600401610d3990611955565b60405180910390fd5b60006040518061010001604052803373ffffffffffffffffffffffffffffffffffffffff1681526020018773ffffffffffffffffffffffffffffffffffffffff1681526020018681526020016000815260200184815260200183815260200160006002811115610db557610db46112aa565b5b81526020016000151581525090506000803373ffffffffffffffffffffffffffffffffffffffff1673ffffffffffffffffffffffffffffffffffffffff16815260200190815260200160002081908060018154018082558091505060019003906000526020600020906007020160009091909190915060008201518160000160006101000a81548173ffffffffffffffffffffffffffffffffffffffff021916908373ffffffffffffffffffffffffffffffffffffffff16021790555060208201518160010160006101000a81548173ffffffffffffffffffffffffffffffffffffffff021916908373ffffffffffffffffffffffffffffffffffffffff16021790555060408201518160020155606082015181600301556080820151816004015560a0820151816005015560c08201518160060160006101000a81548160ff02191690836002811115610f0c57610f0b6112aa565b5b021790555060e08201518160060160016101000a81548160ff021916908315150217905550505060016000815480929190610f46906119a4565b919050555060026040518061010001604052803373ffffffffffffffffffffffffffffffffffffffff1681526020018873ffffffffffffffffffffffffffffffffffffffff1681526020018781526020016000815260200185815260200184815260200160006002811115610fbe57610fbd6112aa565b5b815260200160001515815250908060018154018082558091505060019003906000526020600020906007020160009091909190915060008201518160000160006101000a81548173ffffffffffffffffffffffffffffffffffffffff021916908373ffffffffffffffffffffffffffffffffffffffff16021790555060208201518160010160006101000a81548173ffffffffffffffffffffffffffffffffffffffff021916908373ffffffffffffffffffffffffffffffffffffffff16021790555060408201518160020155606082015181600301556080820151816004015560a0820151816005015560c08201518160060160006101000a81548160ff021916908360028111156110d4576110d36112aa565b5b021790555060e08201518160060160016101000a81548160ff02191690831515021790555050508573ffffffffffffffffffffffffffffffffffffffff163373ffffffffffffffffffffffffffffffffffffffff167f2947526c14d41e26bf003d7ef7432e8c1448e669cef3671dc4d1230c541be6438787878760405161115e94939291906119ec565b60405180910390a3505050505050565b60015481565b600080fd5b600073ffffffffffffffffffffffffffffffffffffffff82169050919050565b60006111a482611179565b9050919050565b6111b481611199565b81146111bf57600080fd5b50565b6000813590506111d1816111ab565b92915050565b6000819050919050565b6111ea816111d7565b81146111f557600080fd5b50565b600081359050611207816111e1565b92915050565b60008060006060848603121561122657611225611174565b5b6000611234868287016111c2565b9350506020611245868287016111c2565b9250506040611256868287016111f8565b9150509250925092565b600081519050919050565b600082825260208201905092915050565b6000819050602082019050919050565b61129581611199565b82525050565b6112a4816111d7565b82525050565b7f4e487b7100000000000000000000000000000000000000000000000000000000600052602160045260246000fd5b600381106112ea576112e96112aa565b5b50565b60008190506112fb826112d9565b919050565b600061130b826112ed565b9050919050565b61131b81611300565b82525050565b60008115159050919050565b61133681611321565b82525050565b61010082016000820151611353600085018261128c565b506020820151611366602085018261128c565b506040820151611379604085018261129b565b50606082015161138c606085018261129b565b50608082015161139f608085018261129b565b5060a08201516113b260a085018261129b565b5060c08201516113c560c0850182611312565b5060e08201516113d860e085018261132d565b50505050565b60006113ea838361133c565b6101008301905092915050565b6000602082019050919050565b600061140f82611260565b611419818561126b565b93506114248361127c565b8060005b8381101561145557815161143c88826113de565b9750611447836113f7565b925050600181019050611428565b5085935050505092915050565b6000602082019050818103600083015261147c8184611404565b905092915050565b60006020828403121561149a57611499611174565b5b60006114a8848285016111c2565b91505092915050565b6114ba816111d7565b82525050565b60006020820190506114d560008301846114b1565b92915050565b600080604083850312156114f2576114f1611174565b5b6000611500858286016111c2565b9250506020611511858286016111f8565b9150509250929050565b61152481611199565b82525050565b61153381611300565b82525050565b61154281611321565b82525050565b60006101008201905061155e600083018b61151b565b61156b602083018a61151b565b61157860408301896114b1565b61158560608301886114b1565b61159260808301876114b1565b61159f60a08301866114b1565b6115ac60c083018561152a565b6115b960e0830184611539565b9998505050505050505050565b600080600080600060a086880312156115e2576115e1611174565b5b60006115f0888289016111c2565b9550506020611601888289016111f8565b9450506040611612888289016111f8565b9350506060611623888289016111f8565b9250506080611634888289016111f8565b9150509295509295909350565b7f4e487b7100000000000000000000000000000000000000000000000000000000600052603260045260246000fd5b600082825260208201905092915050565b7f496e76616c696420726563656976657200000000000000000000000000000000600082015250565b60006116b7601083611670565b91506116c282611681565b602082019050919050565b600060208201905081810360008301526116e6816116aa565b9050919050565b7f536869706d656e74206973206e6f7420696e207472616e7369742e0000000000600082015250565b6000611723601b83611670565b915061172e826116ed565b602082019050919050565b6000602082019050818103600083015261175281611716565b9050919050565b7f536869706d656e7420616c726561647920706169642e00000000000000000000600082015250565b600061178f601683611670565b915061179a82611759565b602082019050919050565b600060208201905081810360008301526117be81611782565b9050919050565b600081905092915050565b50565b60006117e06000836117c5565b91506117eb826117d0565b600082019050919050565b6000611801826117d3565b9150819050919050565b7f5061796d656e74206661696c6564000000000000000000000000000000000000600082015250565b6000611841600e83611670565b915061184c8261180b565b602082019050919050565b6000602082019050818103600083015261187081611834565b9050919050565b7f536869706d656e7420616c726561647920696e207472616e7369742e00000000600082015250565b60006118ad601c83611670565b91506118b882611877565b602082019050919050565b600060208201905081810360008301526118dc816118a0565b9050919050565b7f7061796d656e7420616d6f756e74206d757374206d617463682074686520707260008201527f6963650000000000000000000000000000000000000000000000000000000000602082015250565b600061193f602383611670565b915061194a826118e3565b604082019050919050565b6000602082019050818103600083015261196e81611932565b9050919050565b7f4e487b7100000000000000000000000000000000000000000000000000000000600052601160045260246000fd5b60006119af826111d7565b91507fffffffffffffffffffffffffffffffffffffffffffffffffffffffffffffffff82036119e1576119e0611975565b5b600182019050919050565b6000608082019050611a0160008301876114b1565b611a0e60208301866114b1565b611a1b60408301856114b1565b611a2860608301846114b1565b9594505050505056fea264697066735822122007c95e775ae9cba20a296011c4bfeedd959ca20632b8942c2bd0802e30f06d1164736f6c634300081c0033",
  "linkReferences": {},
  "deployedLinkReferences": {}
}